:020000040800F2
:10000000980800203D0200085B20000857200008E7
:100010005920000899090008E126000800000000A6
:10002000000000000000000000000000C1200008E7
:10003000C50B0008000000007D200008F921000821
:10004000570200085702000857020008570200082C
:10005000570200085702000857020008570200081C
:10006000570200085702000857020008570200080C
:1000700057020008570200085702000857020008FC
:1000800057020008570200085702000857020008EC
:1000900057020008570200085702000857020008DC
:1000A00057020008570200085702000857020008CC
:1000B00057020008570200085702000857020008BC
:1000C00057020008570200085702000857020008AC
:1000D00057020008B526000857020008570200081A
:1000E000570200085702000857020008570200088C
:1000F000570200085702000857020008570200087C
:10010000570200085702000857020008570200086B
:10011000570200085702000857020008570200085B
:10012000570200085702000857020008570200084B
:10013000570200085702000857020008570200083B
:10014000570200085702000857020008570200082B
:10015000570200085702000857020008570200081B
:10016000570200085702000857020008570200080B
:10017000570200085702000857020008000000005C
:10018000570200085702000800F002F800F047F894
:100190000AA090E8000C82448344AAF10107DA45E2
:1001A00001D100F03CF8AFF2090EBAE80F0013F0ED
:1001B000010F18BFFB1A43F001031847D4290000B0
:1001C000F4290000103A24BF78C878C1FAD8520741
:1001D00024BF30C830C144BF04680C6070470000C1
:1001E0000023002400250026103A28BF78C1FBD840
:1001F000520728BF30C148BF0B607047642900F028
:100200009B80782900F0D480732900F09C82002024
:1002100070471FB502F08EFC1FBD10B510BD00F079
:10022000C5FA1146FFF7F5FF02F02AFB00F0E3FAEA
:1002300003B4FFF7F2FF03BC02F05AFA0948804703
:1002400009480047FEE7FEE7FEE7FEE7FEE7FEE7B8
:10025000FEE7FEE7FEE7FEE704480549054A064BD0
:1002600070470000FD210008890100089802002065
:10027000980800209804002098040020704700008F
:100280000FB4044910B503AA029800F061FA10BC3B
:100290005DF814FB1000002070B504468569006805
:1002A000C10601D5302600E02026C00707D070BD6A
:1002B000D4E9012130469047206A401C20626D1E1F
:1002C000F6D570BD70B5044685690078C00707D1C2
:1002D00070BDD4E9012120209047206A401C206293
:1002E0006D1EF6D570BD70B50C460546012A05D0C9
:1002F0002878800600D5EA69002302E0012305E0A2
:100300005B1C934202D2E05C0028F9D1A869E61890
:10031000C01AA861286A184428622846FFF7BCFF63
:1003200004E0D5E9012114F8010B9047B442F8D359
:100330002846FFF7C7FF70BD2DE9F04106460024AF
:1003400010687529314616A510D0AFF3008000283B
:1003500002DA404213A507E031688A0701D512A5E9
:1003600002E0490704D511A5012401E0AFF30080A4
:1003700000210A2206F1240709E0B0FBF2FCB0FBE1
:10038000F2F302FB1C00303078541846491C002858
:10039000F3D123462A463046BDE8F04100F068B963
:1003A000000000002D0000002B00000020000000D5
:1003B00070B504460D4621461068AFF300802188D1
:1003C000090502D50F4A7A4402E00E4A7A440E32F9
:1003D000002104F1240305E000F00F060009965DFA
:1003E0005E54491C0028F7D120780023000704D56B
:1003F000702D02D009B1022311322046BDE87040B1
:1004000000F036B98C2700002DE9F05F89460446DC
:100410004FF0000ADFF824B1FB44C0F820A02046CA
:10042000E168884700287DD0252806D0D4E901213D
:100430009047206A401C2062F1E700255F46204675
:10044000E16888472028064607DB312E05D2B81917
:1004500010F8200C08B10543F1E7A80701D525F0F5
:100460000405C4F81CA00027C4F818A02A2E09D03F
:10047000304602F036F938B304EB8708303EC8F84E
:10048000186019E059F8041B204604EB87029161BB
:10049000E1688847012F064618D1E069002820DA74
:1004A00025F020051DE0D8F8180000EB800006EBD1
:1004B00040003038C8F818002046E16888470646F2
:1004C00002F00FF90028EED1012F0AD02E2E08D10C
:1004D0002046E16888477F1C0646022F45F020052C
:1004E000C4DBA069002803DA404245F00105A061A1
:1004F000E80701D025F01005A6B1A6F141001928A2
:1005000002D8203645F400654A463146204625602B
:100510004D46FFF773FE60B1012807D0ED1D25F0B1
:10052000070000E007E000F1080978E705F1040999
:1005300075E730467AE7206ABDE8F09F6227000041
:10054000401ECAB210F8011F8A4202D00029F9D118
:10055000002070474FF000020429C0F0128010F014
:10056000030C00F01B80CCF1040CBCF1020F18BF8F
:1005700000F8012BA8BF20F8022BA1EB0C0100F022
:100580000DB85FEAC17C24BF00F8012B00F8012BF5
:1005900048BF00F8012B70474FF0000200B513462A
:1005A00094469646203922BFA0E80C50A0E80C5093
:1005B000B1F12001BFF4F7AF090728BFA0E80C5044
:1005C00048BF0CC05DF804EB890028BF40F8042B3D
:1005D00008BF704748BF20F8022B11F0804F18BFAA
:1005E00000F8012B704700004FF0013C50F8042B3D
:1005F00051F8043B9A4221D1A2EB0C03934313EA36
:10060000CC1317D150F8042B51F8043B9A4215D162
:10061000A2EB0C03934313EACC130BD150F8042B39
:1006200051F8043B9A4209D1A2EB0C03934313EA1D
:10063000CC13DBD04FF00000704700BFD01A01BAD6
:10064000B1FA81F101F0180122FA01F0CB40C1F1B9
:100650002001DBB2C0B2C01A2CFA01F3D11A9143C7
:1006600011EAC311E6D17047704770477047704771
:100670002DE9F0470D4699469246044600F12408BC
:100680000168880604D5E06921F01001216000E0CE
:100690000120A84201DD471B00E00027A1697A196B
:1006A00002EB0900081AA0612078C00602D4204697
:1006B000FFF7F2FD002608E0D4E901211AF8060050
:1006C0009047206A401C761C20624E45F4DB20785F
:1006D000C0060AD52046FFF7DFFD06E0D4E9012178
:1006E00030209047206A401C2062381EA7F1010785
:1006F000F4DC07E0D4E9012118F805009047206AEE
:10070000401C2062281EA5F10105F3DC2046FFF7FE
:10071000D9FD2078000602D50220BDE8F08701202F
:10072000FBE710B5436913B1AFF3008001E0FFF7B9
:10073000DAFD012010BD127800F124010A700022B8
:100740004A700122EDE711684FF0FF32E9E700003F
:10075000074B70B50D467B4400F011F8044628465F
:1007600000F020F810B14FF0FF3070BD204670BD92
:100770001321000001694A1C02610878704700B526
:100780008FB0CDE901310021059105497944CDE9CA
:10079000031011466846FFF737FE0FB000BD00009A
:1007A000E5FFFFFF007B00F080007047754600F01A
:1007B0002BF8AE4605006946534620F007008546F3
:1007C00018B020B5FFF748FDBDE820404FF0000607
:1007D0004FF000074FF000084FF0000B21F0070129
:1007E000AC46ACE8C009ACE8C009ACE8C009ACE86C
:1007F000C0098D46704710B50446AFF3008020460F
:10080000BDE81040FFF714BD0048704734020020D7
:1008100010B54C494A6822F440324A604A6843683D
:100820001A434A6001684A6822F480724A6001688B
:100830004A68036942EA03224A6001684A6822F072
:1008400040724A6001684A6883681A434A600168D6
:100850008A6822F400628A6001688A68C3681A4361
:100860008A60816A6FF07062D14214D001688A6830
:1008700022F070628A6001688A68836A1A438A601B
:1008800001688A6822F040528A6001688A68C36AF7
:100890001A438A6009E001688A6822F070628A60FF
:1008A00001688A6822F040528A6001688A6822F0F2
:1008B00002028A6001688A68836942EA43028A60A8
:1008C000016AB9B101684A6842F400624A6001688D
:1008D0004A6822F460424A6001684B68426A4FF4F9
:1008E000604494FAA4F4521EB4FA84F4A240134370
:1008F0004B6004E001684A6822F400624A600168C3
:10090000CA6A22F47002CA620168CB6A828B521EE4
:1009100043EA0252CA6201688A6822F400728A605D
:1009200001688A68036B42EA43228A6001688A6828
:1009300022F480628A6001688A68406942EA802005
:10094000886010BD0023014010B586B000240F4818
:10095000016841F480610160006800F480600190EA
:100960000C480B490160846084610462C462C46005
:100970000121C16100F0D6FA04200290049402A97A
:10098000044800F023FA06B010BD000044380240CD
:1009900000220140EC010020FEE7000070B5254870
:1009A00023490160002484600E254560C4604FF433
:1009B000403101614461047644768476C4760477DC
:1009C000447700F070FC20B11BA0FFF759FC00F049
:1009D000F5F918482830446184610121C16104603F
:1009E00044608460C4600461016245620146283845
:1009F00000F04EFB20B113A0FFF742FC00F0DEF93F
:100A00000C4800F02DFD20B111A0FFF739FC00F0DB
:100A1000D5F90221074800F0B0FA002806D00FA04F
:100A2000FFF72EFCBDE8704000F0C8B970BD0000B3
:100A3000006400409C01002043414E5F496E697490
:100A40000000000043414E5F46696C74657200000F
:100A500043414E5F537461727400000043414E5F26
:100A600041637400F0B587B007460D461646002472
:100A70002B466A4600210E4800F092FB08B100F0B8
:100A80009DF900983860049830700AA0FFF7F8FBD1
:100A900005E0295D0BA0FFF7F3FB641CE4B230789E
:100AA000A042F6D808A0FFF7EBFB07B0F0BD0000AE
:100AB0009C0100205265636569766520696E666FEA
:100AC0003A0D0A00255820000D0A00002DE9F041DA
:100AD000224F388801043ED52149C0F30D0000247F
:100AE0000C540D211E48FFF72BFD00B104700A21A4
:100AF0001B48FFF725FD00B104701AA11848FFF745
:100B000073FD194D194E4FF0010850B118A114484A
:100B1000FFF76AFD60B117A11148FFF765FD70B1DD
:100B200012E085F80080347013A0FFF7A9FB0BE0FA
:100B30002C7086F8008016A0FFF7A2FB04E02C7052
:100B400034701AA0FFF79CFB3C80BDE8F041C8213F
:100B50000348FFF7FFBCBDE8F08100000E00002055
:100B60001C000020530000000400002005000020AD
:100B700052000000480000005265636569766520F8
:100B8000535441525420436F6D6D616E640D0A00E1
:100B9000526563656976652052454C454153452051
:100BA000436F6D6D616E640D0A00000052656365F0
:100BB0006976652053544F5020436F6D6D616E64AC
:100BC0000D0A000070471FB50023009301930293A4
:100BD00003938DF80000F3208DF80100AB208DF811
:100BE00002008DF803108DF804206B208DF80500AD
:100BF0000621684601F07EFD1FBD1FB5002300934E
:100C00000193029303938DF8000046208DF80100B4
:100C100069208DF802008DF803108DF804206B20F8
:100C20008DF805000621684601F064FD1FBD2DE921
:100C3000FF410AADE0CD0024009401940294039496
:100C40008DF80000FD208DF801008DF80210100ACB
:100C50008DF803008DF804208DF80530280E8DF8EE
:100C60000600280C8DF80700280A8DF808008DF87A
:100C700009508DF80A608DF80B706B208DF80C0010
:100C80000D21684601F036FDBDE8FF811FB5002249
:100C900000920192029203926A468DF800000120B0
:100CA000112955D2DFE801F0090E1318541D542202
:100CB000272C3136543B454D40001F208DF8010054
:100CC000022045E020208DF80100022040E0212094
:100CD0008DF8010002203BE024208DF80100022065
:100CE00036E027208DF80100022031E031208DF818
:100CF000010002202CE033208DF80100022027E0C3
:100D000035208DF80100022022E036208DF8010008
:100D100002201DE037208DF80100022018E03A2063
:100D20008DF80100022013E03B208DF80100022025
:100D30000EE042208DF801006C208DF802000320A7
:100D400006E043208DF801007A208DF80200032090
:100D50006B211154401CC1B2684601F0CBFC1FBD91
:100D60001FB5002100910191029103918DF80000BF
:100D70000A208DF801006D208DF802006B208DF89F
:100D800003000421684601F0B5FC1FBD1FB5002219
:100D900000920192029203928DF80000FE208DF8DD
:100DA000010098208DF802008DF803106B208DF85B
:100DB00004000521684601F09DFC1FBD01A0FFF75E
:100DC0005FBA00004572726F720D0A0078B5002498
:100DD000009490F83C20012A19D0012280F83C2090
:100DE0000A680725092A14D90368DE680A3A02EB63
:100DF00042029540AE43DE600A788B680A3A02EB05
:100E0000420293400268D5682B43D36011E0022070
:100E100078BD03681E6902EB42029540AE431E6135
:100E20000A788B6802EB42029340026815692B43F3
:100E300013614A681F25072A13D203685E6B521E8E
:100E400002EB82029540AE435E630A8893B20A7950
:100E5000521E02EB820293400268556B2B43536390
:100E600028E00D2A13D203681E6BD21F02EB820208
:100E70009540AE431E630A8893B20A79D21F02EBF3
:100E8000820293400268156B2B43136312E00368E0
:100E9000DE6A0D3A02EB82029540AE43DE620A88BA
:100EA00093B20A790D3A02EB820293400268D56A46
:100EB0002B43D362174A184B05689D4206D10D6833
:100EC000122D03D1556845F48005556005689D4293
:100ED0001BD10B68102B01D0112B16D1536843F492
:100EE00000035360096810290FD10C490C4A0968A6
:100EF000B1FBF2F101EB81014900009102E00099A0
:100F0000491E009100990029F9D180F83C40002049
:100F100078BD0000002301400020014000000020B7
:100F200040420F0070B504460026002C03D0206C10
:100F3000002510B107E0012070BD656484F83C50C5
:100F4000204600F019F8206CC00610D4206C20F464
:100F5000885040F0020020642046FFF759FC656489
:100F6000206C20F0020040F00100206400E0012627
:100F700084F83C50304670BD704790F82020012A1C
:100F800007D0022A05D0416A41F480214162012044
:100F90007047006842690A43426100207047F0B51B
:100FA00090F820500468A468012D07D0022D05D0C8
:100FB000416A41F4802141620120F0BD04F0806566
:100FC00004F00066354301D1E5005BD5C4F301644C
:100FD000022C05D9416A41F4000141620120F0BDB3
:100FE0000125A5401D608B684FF4C0759BB1CE688C
:100FF00005EB041733434E6843EAC6030668F35112
:101000004FF4C273076803EB04130E69FE50097DA9
:10101000012909D00DE00E88CB6805EB041743EADF
:1010200046530668F351EBE70168CE5846F48076E4
:10103000CE501179D379567941EA036193791B0433
:1010400043EA062319434FF4C676036806EB0416F9
:1010500099511178D37841EA0361937852781B044F
:1010600043EA022211434FF4C473026803EB0413F2
:10107000D150006805EB0411425842F00102425081
:101080000020F0BD416A41F4001141620120F0BD31
:1010900010B590F82020012A07D0022A05D0416A15
:1010A00041F480214162012010BD3C4800F50070F0
:1010B000026842F001020260026822F47C5202607F
:1010C00002684B6A42EA032202600A7D02F01F03B3
:1010D00001229A40C3699343C361A0F50070CB69B4
:1010E000B3B9D0F80C329343C0F80C328C894B68FA
:1010F00064F31F434C6900EBC404C4F840320C890C
:101100000B6864F31F434C6900EBC404C4F8443219
:10111000CB69012B16D1D0F80C321343C0F80C3236
:101120000C884B6864F31F434C6900EBC404C4F89B
:1011300040320C89CB6864F31F434C6900EBC40454
:10114000C4F844328B697BB1D0F804321343C0F841
:1011500004320B6973B1D0F814321343C0F814325F
:10116000096A01290CD010E0D0F804329343C0F88A
:101170000432EEE7D0F814329343C0F81432EFE7AC
:10118000D0F81C121143C0F81C12D0F8001221F044
:101190000101C0F80012002010BD000000640040F2
:1011A00030B590F82040012C07D0022C05D0416AC0
:1011B00041F480214162012030BD21B104682469DD
:1011C000A4075FD003E00468E468A40754D04FF498
:1011D000D874056804EB01142D5905F004059560D9
:1011E000F5B305682D59ED08556005682C5904F0D4
:1011F0000204D4604FF4DA74056804EB01142D592D
:1012000005F00F05156105682D59C5F30725956192
:1012100005682C59240C54614FF4DC72046802EB0D
:101220000112A4581C700468A458240A5C70046855
:10123000A458240C9C700468A258120EDA704FF463
:10124000DE72046802EB0112A4581C710468A458F1
:10125000240A5C710468A458240C9C71046800E0A2
:1012600016E0A258120EDA71B9B10068016941F0B6
:1012700020010161002030BD416A41F4001141624A
:10128000012030BD416A41F400114162012030BDAE
:1012900005682D596D0D1560A7E70068C16841F01C
:1012A0002001C160E6E770B50446002C03D094F835
:1012B000200010B104E0012070BD204600F09CF831
:1012C0002068016821F00201016000F005FA05467E
:1012D00005260CE000F000FA401B0A2807D9606AD6
:1012E00040F40030606284F82060012070BD206806
:1012F00040688007EED42068016841F00101016078
:1013000000F0EAF905460CE000F0E6F9401B0A2877
:1013100007D9606A40F40030606284F820600120E0
:1013200070BD20684068C007EED0207E01283FD005
:101330002068016821F080010160607E01283DD0B5
:101340002068016821F040010160A07E01283BD0A7
:101350002068016821F020010160E07E012839D079
:101360002068016841F010010160207F012837D01A
:101370002068016821F008010160607F012835D0F4
:101380002068016821F004010160D4E902010843EA
:10139000D4E90412114308436168491E08432168D7
:1013A000C86100206062012084F82000002070BD28
:1013B0002068016841F080010160BEE72068016893
:1013C00041F040010160C0E72068016841F0200160
:1013D0000160C2E72068016821F010010160C4E7E4
:1013E0002068016841F008010160C6E720680168D3
:1013F00041F004010160C8E710B586B0044614212D
:1014000001A8FFF7C9F81349206888421FD1124884
:10141000016841F000710160006800F00070009008
:101420000D481038016841F008010160006800F0C3
:1014300008000090032001900221029101210391F4
:1014400004900920059001A9044800F055F806B061
:1014500010BD00000064004040380240000C024013
:1014600070B5044694F82000012805D0606A40F465
:1014700000206062012070BD022084F820002068F6
:10148000016821F00101016000F026F905460DE038
:1014900000F022F9401B0A2808D9606A40F40030A5
:1014A0006062052084F82000012070BD206840683B
:1014B000C007EDD1606270BD90F83510022903D0ED
:1014C0008021416501207047052180F835100068B2
:1014D000016821F0010101600020704731B500F082
:1014E000FBF80546009C601C00D0641C00F0F4F87A
:1014F000401BA042FAD338BD2DE9F84F0022DFF897
:101500009091DFF88C8109F108094FF0010E4FF03E
:101510000F0C09F1040A0EFA02F60B683340B342CD
:1015200071D14C68022C01D0122C11D1D40800EBDF
:1015300084073D6A5407E40E0CFA04FB25EA0B0508
:10154000D1F810B00BFA04FB4BEA050BC7F820B03A
:10155000076854000325A540AF4391F804B00BF091
:10156000030B0BFA04FB4BEA070BC0F800B04F6803
:10157000012F05D0022F03D0112F01D0122F11D12E
:101580008768AF43D1F80CB00BFA04FB4BEA070BAA
:10159000C0F808B04768B7430E79C6F30016964006
:1015A0003E434660C668AE438D68A5403543C5607E
:1015B0004C68E40065D5374C256845F480452560C6
:1015C000246804F480440094334C22F0030525443D
:1015D000D5F808789407260F0CFA06F4A7432F4C89
:1015E000A04201D1002424E02D4CA04201D10124CD
:1015F0001FE02C4CA04201D102241AE02A4CA04248
:1016000002D1032415E03CE0284CA04201D104247F
:101610000FE0274CA04201D105240AE0254CA0424E
:1016200001D1062405E0244CA04201D1072400E0AA
:101630000824B4403C43C5F80848D8F800409C430F
:101640004D68ED0300D51C43C8F80040104D2D1D1A
:101650002C689C434E68B60300D51C432C60D9F817
:1016600000409C434D68ED0200D51C43C9F8004082
:10167000DAF800409C434D68AD0200D51C43CAF81F
:101680000040521C102AFFF446AFBDE8F88F00005E
:10169000003C01404438024000300140000002405C
:1016A0000004024000080240000C0240001002400A
:1016B0000014024000180240001C02400069084269
:1016C00001D00120704700207047000001480068E9
:1016D000000C7047002004E00148006870470000DB
:1016E0001800002002480168491C01607047000092
:1016F0001800002010B5044607484FF47A720068BD
:10170000B0FBF2F000F03EFB00222146501E00F03C
:1017100011F8002010BD00000000002000F01F02A2
:10172000012191404009800000F1E020C0F8001143
:1017300070470000F0B40D460D4B1B68C3F3022345
:10174000C3F10704042C00D90424191D072901D270
:10175000002300E0DB1E012606FA04F1491E2940A1
:1017600099409E40761E16403143F0BC00F076BC96
:101770000CED00E02DE9F04704460E46DFF86891D5
:10178000D9F8000006F0FF0800F00F00B0420AD2BE
:1017900089F80080D9F8000000F00F00B04202D0B4
:1017A0000120BDE8F0872078504F800705D53868C4
:1017B000A16820F0F000084338602078C0075BD0B3
:1017C0004A4960680839012808D002280BD003284C
:1017D00009D0096889070BD40120E2E70968890369
:1017E00006D40120DDE70968890101D40120D8E78A
:1017F000396821F0030101433960FFF76DFF0546A9
:10180000606841F2883A01280BD0022816D00328DC
:1018100021D02DE0FFF760FF401B504501D9032088
:10182000BFE73868C0F381000128F3D124E0FFF757
:1018300053FF401B504501D90320B2E73868C0F37D
:1018400081000228F3D117E0FFF746FF401B504507
:1018500001D90320A5E73868C0F381000328F3D13C
:101860000AE0FFF739FF401B504501D9032098E7F4
:10187000386810F00C0FF4D1D9F8000000F00F0018
:10188000B04209D989F80080D9F8000000F00F00B3
:10189000B04201D0012084E72078400705D53868A0
:1018A000E16820F4E050084338602078000706D54E
:1018B0003868216920F4604040EAC100386000F0D7
:1018C0004DF83968F02292FAA2F201F0F001B2FA72
:1018D00082F2D140064A515CC840064908600F2098
:1018E000FFF708FF00205CE7003C02400838024098
:1018F0003E2B0008000000200148006870470000EF
:101900000000002000B5FFF7F7FF074909684FF412
:10191000E05292FAA2F201F4E051B2FA82F2D1401E
:10192000024A515CC84000BD083802404E2B0008F6
:1019300000B5FFF7E1FF074909684FF4604292FAEA
:10194000A2F201F46041B2FA82F2D140024A515C43
:10195000C84000BD083802404E2B000830B51D4875
:10196000006810F00C011C481AD04410042916D04D
:10197000082915D1174A121F116801F03F01136899
:101980005D0247F6C0730CD5B4FBF1F01168194045
:1019900093FAA3F3B3FA83F3D94048430BE020460C
:1019A00030BDB0FBF1F01168194093FAA3F3B3FA1C
:1019B00083F3D940484311684FF4403292FAA2F2BF
:1019C00001F44031B2FA82F2D140491C4900B0FB27
:1019D000F1F030BD083802400024F4002DE9F84F42
:1019E0000446DFF874832078A8F10407C007A7F144
:1019F000040552D0D8F80000C0F38100012808D0B7
:101A0000D8F80000C0F3810002280AD138684002EB
:101A100007D52868800340D5606878BB0120BDE801
:101A2000F88F6068B0F5803F10D0B0F5A02F12D0CD
:101A3000286820F480302860286820F480202860FE
:101A40006068E0B1FFF748FE064614E0286840F4FD
:101A500080302860F4E7286840F4802028602868F7
:101A600040F480302860EBE7FFF736FE801B6428E7
:101A700001D90320D3E728688003F5D50DE0FFF7EF
:101A80002BFE064606E0FFF727FE801B642801D9DF
:101A90000320C4E728688003F5D42078DFF8BC92DF
:101AA00080074FF0000A52D5D8F800004FF0F80B2D
:101AB00010F00C0F08D0D8F80000C0F38100022805
:101AC00016D13868400213D42868800704D5E0682E
:101AD000012801D00120A2E728689BFAABF2216916
:101AE000B2FA82F220F0F8009140084328602EE01C
:101AF000E068E0B10120C9F80000FFF7EDFD0646FF
:101B000006E0FFF7E9FD801B022801D9032086E7E4
:101B100028688007F5D528689BFAABF22169B2FAEC
:101B200082F220F0F8009140084328600FE0C9F8E5
:101B300000A0FFF7D1FD064606E0FFF7CDFD801BB4
:101B4000022801D903206AE728688007F5D42078A5
:101B5000000729D5DFF800B2814861690BF16C0BF1
:101B600089B101210160FFF7B7FD064606E0FFF7E6
:101B7000B3FD801B022801D9032050E7DBF80000E9
:101B80008007F4D510E0C0F800A0FFF7A5FD0646D9
:101B900006E0FFF7A1FD801B022801D903203EE7E4
:101BA000DBF800008007F4D4207840076ED56A483F
:101BB0003830016841F080510160006800F08050C9
:101BC0000090DFF8A0B1DBF8000040F48070CBF8A3
:101BD0000000FFF781FD064606E0FFF77DFD801B54
:101BE000022801D903201AE7DBF80000C005F4D56C
:101BF000DFF864B1A0680BF1680B012813D0052849
:101C000018D0DBF8000020F00100CBF80000DBF872
:101C1000000020F00400CBF80000A06828B3FFF714
:101C20005BFD06461CE0DBF8000040F00100CBF84D
:101C30000000F2E7DBF8000040F00400CBF8000001
:101C4000DBF8000040F00100CBF80000E5E7FFF70B
:101C500043FD811B41F28830814201D90320DEE639
:101C6000DBF800008007F2D510E0FFF735FD0646EF
:101C700008E0FFF731FD811B41F28830814201D934
:101C80000320CCE6DBF800008007F2D4A069E8B3BB
:101C9000D8F80010C1F3810102295AD0022805D0DA
:101CA000C9F860A0FFF718FD04464DE0C9F860A030
:101CB000FFF712FD064606E0FFF70EFD801B022827
:101CC00001D90320ABE628688001F5D4D4E90701E7
:101CD000084347F6C07292FAA2F2616AB2FA82F23F
:101CE0009140A26A4FF0FF3303EB52024FF44033AE
:101CF00093FAA3F3B3FA83F39A4011434FF070625F
:101D000092FAA2F20843B2FA82F200E01FE0E16A1E
:101D10009140084338600120C9F86000FFF7DCFCFF
:101D2000044606E0FFF7D8FC001B022801D9032077
:101D300075E628688001F5D509E0FFF7CDFC001BAA
:101D4000022801D903206AE628688001F5D4002022
:101D500065E6012063E600000838024000004742C3
:101D6000800E4742007000404FF0E021042804D06C
:101D7000086920F0040008617047086940F0040019
:101D80000861704710B5401EB0F1807F01D301207B
:101D900010BD4FF0E02460610F21601700F05EF984
:101DA0000020A06107202061002010BD704701467F
:101DB00011F8390F497808437047000070B50446A0
:101DC00022681068D168526900F00F03002B08D117
:101DD000850606D58D0604D52046BDE8704000F086
:101DE00062BA002B5ED002F0010301F490752B4320
:101DF00058D0C30705D0CB0503D5E36B43F00103EF
:101E0000E363430705D5D30703D0E36B43F0020335
:101E1000E363830705D5D30703D0E36B43F00403E3
:101E2000E363030705D5D20703D0E26B42F0080253
:101E3000E263E26B002A2AD0800604D5880602D528
:101E4000204600F030FA20684069C0F38010E16B52
:101E5000090700D400B3204600F00AFA206841695F
:101E6000490615D5416921F040014161606B58B1C7
:101E700015490165606BFFF71FFB002807D0606BF9
:101E8000016DBDE8704008472046FFF78FFF70BD29
:101E90002046FFF78BFF70BD2046FFF787FF00202D
:101EA000E06370BD020606D50A0604D52046BDE8EB
:101EB000704000F0CBBB4006F3D54806F1D5204674
:101EC000BDE8704000F0E2B96122000870B5044638
:101ED000002C04D094F83900002510B106E0012050
:101EE00070BD84F83850204600F022F8242084F891
:101EF00039002068C16821F40051C160204600F01B
:101F00001BFA2068016921F4904101612068416950
:101F100021F02A0141612068C16841F40051C1608B
:101F2000E563202084F8390084F83A00002070BD71
:101F300010B586B000681A4988422FD11948016847
:101F400041F001010160006800F0010000901548B7
:101F50001430016841F010010160006800F01000C9
:101F600000904FF400700190022002900121039133
:101F70000490072005900C4C01A92046FFF7BCFAFD
:101F80002115019101A92046FFF7B6FA2520FFF798
:101F9000C5FB032211462520FFF7CCFB06B010BD80
:101FA00000100140303802400000024090F83A3002
:101FB000202B01D002207047D1B1CAB190F838303F
:101FC000012B17D081628285C2850021C163222244
:101FD00080F83A2080F8381001684A6942F001021E
:101FE0004A610068C16841F49071C1600020704787
:101FF000012070470220704730B5006812498842BE
:102000000CD1124A5088010408D4114644040978BE
:102010004FF0000307D50A2901D0538030BD40F4AA
:102020000040508030BD0D290AD0094DC0F30D0489
:102030002955401C80B25080C728F3D9538030BD49
:1020400040F48040508030BD001001400C00002062
:102050001C0000207047FEE7FEE770470907090EE5
:10206000002806DA00F00F0000F1E02080F8141DCF
:10207000704700F1E02080F80014704770470000BE
:1020800010B508210648FFF719FB20B105A0FEF79F
:10209000F7F8002010BD06A0FEF7F2F8012010BDF1
:1020A00000140240D1B9C1A6D5FDB3A30D0A0000AA
:1020B000D1B9C1A6B3ACB9FDE3D0D6B50D0A0000C5
:1020C000704700002DE9F04186B00025214C2068C2
:1020D00040F001002060206800F00100009001271E
:1020E000019702954FF00208CDF80C800326049664
:1020F00001A91948FFF700FA206840F0100020609D
:10210000206800F010000090102001900295CDF89A
:102110000C80049601A91148FFF7EEF9206840F001
:1021200020002060206800F02000009040200190F6
:10213000029603950A4C01A92046FFF7DDF9082114
:1021400001910295039701A92046FFF7D5F906B042
:10215000BDE8F0813038024000000240001002402B
:102160000014024070B592B00025204C266846F05D
:1021700080562660246804F0805400941C4C266825
:1021800046F480462660246804F4804400940124C8
:1021900006942404079402240C9466050D960E916F
:1021A0000F901092119306A8FFF718FC00B1FEE7FC
:1021B0000F200190029403954FF4A05004904FF427
:1021C00080500590052101A8FFF7D4FA00B1FEE781
:1021D000FFF77CFA41F20101884204D10548016809
:1021E00041F48071016012B070BD000040380240BF
:1021F00000700040003C0240FFF774BA10480168CC
:1022000041F4700101600F48016841F00101016073
:102210000C4A00210832116002680B4B1A40026020
:10222000031D0A4A1A60026822F4802202600548EF
:102230000C30016002495806803908607047000080
:1022400088ED00E000380240FFFFF6FE1030002469
:10225000014601A0FEF714B825730D0A0000000026
:1022600010B5806B0021C185C184FFF79FFD10BDB3
:102270000168CA6822F49072CA6001684A6922F053
:1022800001024A61202180F83A10704710B50168B8
:10229000CA6822F04002CA60202180F83910FFF796
:1022A000D9FE002010BD10B590F83A10222901D0B7
:1022B000022010BD8168B1F5805F11D0016919B3AA
:1022C0000168496801F07F03816A4A1C82620B70D1
:1022D000C18D491E0904090CC1851CD0002010BD08
:1022E000816A02693AB102685268D2B20A80816A90
:1022F000491C8162ECE702685268C2F308020A8056
:10230000816A891C8162E3E701684A68816A4B1C23
:1023100083620A70DCE70168CA6822F49072CA60BE
:1023200001684A6922F001024A61202180F83A10CE
:10233000FFF762FE002010BD2DE9F0410446206841
:10234000016921F44052E168114301612068C268CB
:1023500049F20C618A432369A168E56919436369FD
:102360002B4319431143C1602068416921F4407136
:10237000A2690A434261E069B24AB3496425322640
:10238000B0F5004F59D02068884201D090427DD1ED
:10239000FFF7CEFA00EBC00101EB00106168890085
:1023A000B0FBF1F7FFF7C4FA00EBC00101EB00103E
:1023B00061688900B0FBF1F0B0FBF5F06FF0180137
:1023C000484307EB800006EB0010B0FBF5F000F08F
:1023D000F007FFF7ADFA00EBC00101EB00106168F8
:1023E0008900B0FBF1F0B0FBF5F007EB0017FFF749
:1023F0009FFA00EBC00101EB001061688900B0FB9F
:10240000F1F8FFF795FA00EBC00101EB00106168ED
:102410008900B0FBF1F0B0FBF5F06FF01801484314
:1024200008EB800006EB0010B0FBF5F0216800F02F
:102430000F0038448860BDE8F0812068884201D0F0
:10244000904256D1FFF774FA00EBC00101EB001087
:1024500061684900B0FBF1F0B0FBF5F00701FFF750
:1024600067FA00EBC00101EB001061684900B0FBA6
:10247000F1F8FFF75DFA00EBC00101EB00106168B5
:102480004900B0FBF1F0B0FBF5F000E086E06FF042
:102490001801484308EB800006EBC000B0FBF5F0E4
:1024A00000F0F80007EB4007FFF742FA00EBC0012D
:1024B00001EB001061684900B0FBF1F8FFF738FA52
:1024C00000EBC00101EB001061684900B0FBF1F0C6
:1024D000B0FBF5F06FF01801484308EB800006EB05
:1024E000C000B0FBF5F0216800F0070038448860B8
:1024F000A1E7FFF707FA00EBC00101EB00106168EC
:102500004900B0FBF1F0B0FBF5F00701FFF7FAF975
:1025100000EBC00101EB001061684900B0FBF1F86D
:10252000FFF7F0F900EBC00101EB00106168490012
:10253000B0FBF1F0B0FBF5F06FF01801484308EB89
:10254000800006EBC000B0FBF5F000F0F80007EBF0
:102550004007FFF7D7F900EBC00101EB00106168FD
:102560004900B0FBF1F8FFF7CDF900EBC00101EB3A
:10257000001061684900B0FBF1F0B0FBF5F06FF0BE
:102580001801484308EB800006EBC000B0FBF5F0F3
:10259000216800F00700384488604CE7FFF7B2F983
:1025A00000EBC00101EB001061688900B0FBF1F79E
:1025B000FFF7A8F900EBC00101EB0010616889008A
:1025C000B0FBF1F0B0FBF5F06FF01801484307EBFA
:1025D000800006EB0010B0FBF5F000F0F007FFF70D
:1025E00091F900EBC00101EB001061688900B0FBBC
:1025F000F1F0B0FBF5F007EB0017FFF783F900EB04
:10260000C00101EB001061688900B0FBF1F8FFF731
:1026100079F900EBC00101EB001061688900B0FBA3
:10262000F1F0B0FBF5F06FF01801484308EB8000C3
:1026300006EB0010B0FBF5F0216800F00F00384405
:102640008860F8E6001401400010014090F839104D
:10265000212901D0022070478168B1F5805F0CD03C
:10266000016A4A1C0262026809785160C18C491EE5
:102670000904090CC18410D019E0016A02680988B4
:10268000C1F308015160016919B1016A491C016275
:10269000ECE7016A891C0162E8E70168CA6822F078
:1026A0008002CA600068C16841F04001C16000203A
:1026B0007047000010B50848FFF780FB0648FFF799
:1026C00076FB2028FAD1012204490348FFF76EFC6B
:1026D0000028F8D110BD0000E40000200C0000200C
:1026E000FEE730380A2801D20120704700207047E9
:1026F000704700002DE9F04186B005460027059798
:102700000497039702970197891E0491404E76E043
:102710009DF810009DF81410401A0390F763287874
:102720009DF8041041EA00203064687886F854006F
:1027300004207064B7649DF80C0008281DD202972D
:1027400010E09DF81400284480789DF8081031446A
:1027500081F855009DF80800401C02909DF8140077
:10276000401C05909DF808009DF80C108842E8D3A5
:102770009DF80C00401CF06418E0029710E09DF8F2
:102780001400284480789DF80810314481F85500E1
:102790009DF80800401C02909DF81400401C059014
:1027A0009DF808000728EAD30820F064F36C326C27
:1027B0009DF8041017A0FDF763FD002406E0301912
:1027C00090F8541020A0FDF75BFD641CF06CA04253
:1027D000F5D81FA0FDF754FDDFF8348008F154044C
:1027E00008F13C080A481B4B224641467830FEF768
:1027F000D6FB0028F6D19DF80400401C01909DF8FE
:1028000014009DF81010884282D306B0BDE8F08114
:102810002401002053656E64696E672043414E2099
:102820007061636B65742025643A2045787449644F
:102830003D307825582C20444C433D25642C2044C1
:102840006174613D00000000253032582000000016
:102850000D0A00001400002010B504460420FFF704
:1028600083FA0148046010BD0800002003490A688B
:102870005206FCD5C2B24A60704700000010014009
:1028800088B000240723022208214FF4A870FFF724
:1028900069FCA820FFF7E0FF4FF4E13000F02EF9CB
:1028A000FEF752F8FFF70EFCFEF778F80121002240
:1028B0000846FEF788F96420FEF710FE0222002188
:1028C0000120FEF79AF96420FEF708FE4BA0FDF701
:1028D000D7FC00264D4DFEF7F9F8062C7AD2DFE83A
:1028E00004F0030E27657A570120FEF739FA48A055
:1028F000FDF7C6FC01243220FEF7F0FD7AE02878CF
:1029000078B12E704FF47A70CDE90006002364226E
:10291000194601200296FEF78AF942A0FDF7B0FCA5
:1029200002E0687800B105243220FEF7D7FD61E0AF
:10293000FFF7A6FB68B100210120FEF727FA3FA0B0
:10294000FFF786FC41A0FDF79BFC46A0FDF798FC35
:1029500005243220FEF7C2FD4CE09DF819009DF8D9
:1029600016109DF8182040EA01619DF81700000438
:1029700040EA022001439DF81500012800D1494298
:102980003FA0FDF77DFC032434E043A0FDF778FC75
:102990000A210120FEF77AF904AA05A903A8FEF787
:1029A00061F89DF814003628EFD1D6E7687868B151
:1029B0006E700120CDE9006000236422014602967A
:1029C000FEF735F936A0FDF75BFC04243220FEF754
:1029D00085FD0FE00DE0012437A0FFF739FC3BA097
:1029E000FDF74EFC3FA0FDF74BFC3220FEF776FDD5
:1029F00000E000243220FEF771FD6CE7496E697437
:102A00002046696E6973680D0A000000040000200A
:102A100053746174653A20434C41575F49444C45B7
:102A20000D0A000053746174653A20434C41575FAE
:102A30004752495050494E470D0A000047524950ED
:102A40005F434F4D504C4554450D0A00537461741B
:102A5000653A20434C41575F484F4C44494E470D1F
:102A60000A0000005761697420666F722052656C1D
:102A70006561736520636D64202E2E2E0D0A0000A3
:102A800043757272656E7420706F736974696F6ECE
:102A90003A2025640D0A00006C6F6F700D0A00006B
:102AA00053746174653A20434C41575F52454C451D
:102AB0004153494E470D0A0052454C454153455F2D
:102AC000434F4D504C455445000000005374617411
:102AD000653A20434C41575F52454C45415345446C
:102AE0000D0A00005761697420666F72206E657868
:102AF0007420636D64202E2E2E0D0A0010B50B4934
:102B0000094A0A60486000208860C86008618861DE
:102B10000C2048610846FFF7D9F9BDE810400122B2
:102B200003490248FFF742BA00100140E4000020C8
:102B30000C0000204FF04070E1EE100A70470000DA
:102B4000000000000000010203040607080900005D
:102B5000000001020304303132333435363738395E
:102B600041424344454640305800303132333435D9
:102B70003637383961626364656640307800040036
:102B8000000800000000000000020001000010002A
:102B9000B02B0008000000201C000000C401000849
:102BA000CC2B00081C0000207C080000E00100087D
:102BB0000024F400000000000000000000000000FD
:0C2BC00000000000000000000000000009
:040000050800023DB0
:00000001FF
